{
  "contractName": "TeesaCoin",
  "abi": [
    {
      "constant": true,
      "inputs": [],
      "name": "creator",
      "outputs": [
        {
          "name": "",
          "type": "address"
        }
      ],
      "payable": false,
      "stateMutability": "view",
      "type": "function"
    },
    {
      "constant": true,
      "inputs": [
        {
          "name": "",
          "type": "address"
        }
      ],
      "name": "balanceOf",
      "outputs": [
        {
          "name": "",
          "type": "uint256"
        }
      ],
      "payable": false,
      "stateMutability": "view",
      "type": "function"
    },
    {
      "constant": true,
      "inputs": [],
      "name": "totalTokens",
      "outputs": [
        {
          "name": "",
          "type": "uint256"
        }
      ],
      "payable": false,
      "stateMutability": "view",
      "type": "function"
    },
    {
      "constant": true,
      "inputs": [
        {
          "name": "",
          "type": "address"
        },
        {
          "name": "",
          "type": "uint256"
        }
      ],
      "name": "transactionTable",
      "outputs": [
        {
          "name": "payee",
          "type": "address"
        },
        {
          "name": "amount",
          "type": "int256"
        }
      ],
      "payable": false,
      "stateMutability": "view",
      "type": "function"
    },
    {
      "inputs": [
        {
          "name": "initialSupply",
          "type": "uint256"
        }
      ],
      "payable": false,
      "stateMutability": "nonpayable",
      "type": "constructor"
    },
    {
      "payable": true,
      "stateMutability": "payable",
      "type": "fallback"
    },
    {
      "constant": false,
      "inputs": [
        {
          "name": "to",
          "type": "address"
        },
        {
          "name": "value",
          "type": "uint256"
        }
      ],
      "name": "transferTo",
      "outputs": [],
      "payable": false,
      "stateMutability": "nonpayable",
      "type": "function"
    },
    {
      "constant": true,
      "inputs": [
        {
          "name": "user",
          "type": "address"
        }
      ],
      "name": "accountBalance",
      "outputs": [
        {
          "name": "",
          "type": "uint256"
        }
      ],
      "payable": false,
      "stateMutability": "view",
      "type": "function"
    },
    {
      "constant": false,
      "inputs": [
        {
          "name": "user",
          "type": "address"
        }
      ],
      "name": "getEther",
      "outputs": [],
      "payable": false,
      "stateMutability": "nonpayable",
      "type": "function"
    },
    {
      "constant": false,
      "inputs": [],
      "name": "kill",
      "outputs": [],
      "payable": false,
      "stateMutability": "nonpayable",
      "type": "function"
    }
  ],
  "bytecode": "0x6060604052341561000f57600080fd5b6040516020806109c983398101604052808051906020019091905050336000806101000a81548173ffffffffffffffffffffffffffffffffffffffff021916908373ffffffffffffffffffffffffffffffffffffffff1602179055508060018190555080600260008060009054906101000a900473ffffffffffffffffffffffffffffffffffffffff1673ffffffffffffffffffffffffffffffffffffffff1673ffffffffffffffffffffffffffffffffffffffff16815260200190815260200160002081905550506108e2806100e76000396000f30060606040526004361061008e576000357c0100000000000000000000000000000000000000000000000000000000900463ffffffff16806302d05d3f146100905780632ccb1b30146100e557806341c0e1b51461012757806370a082311461013c5780637e1c0c091461018957806383cc0ac6146101b2578063d294cb0f1461023b578063ebd6bbfb14610288575b005b341561009b57600080fd5b6100a36102c1565b604051808273ffffffffffffffffffffffffffffffffffffffff1673ffffffffffffffffffffffffffffffffffffffff16815260200191505060405180910390f35b34156100f057600080fd5b610125600480803573ffffffffffffffffffffffffffffffffffffffff169060200190919080359060200190919050506102e6565b005b341561013257600080fd5b61013a61062e565b005b341561014757600080fd5b610173600480803573ffffffffffffffffffffffffffffffffffffffff169060200190919050506106bf565b6040518082815260200191505060405180910390f35b341561019457600080fd5b61019c6106d7565b6040518082815260200191505060405180910390f35b34156101bd57600080fd5b6101f2600480803573ffffffffffffffffffffffffffffffffffffffff169060200190919080359060200190919050506106dd565b604051808373ffffffffffffffffffffffffffffffffffffffff1673ffffffffffffffffffffffffffffffffffffffff1681526020018281526020019250505060405180910390f35b341561024657600080fd5b610272600480803573ffffffffffffffffffffffffffffffffffffffff1690602001909190505061073d565b6040518082815260200191505060405180910390f35b341561029357600080fd5b6102bf600480803573ffffffffffffffffffffffffffffffffffffffff16906020019091905050610786565b005b6000809054906101000a900473ffffffffffffffffffffffffffffffffffffffff1681565b80600260003373ffffffffffffffffffffffffffffffffffffffff1673ffffffffffffffffffffffffffffffffffffffff168152602001908152602001600020541015151561033457600080fd5b600260008373ffffffffffffffffffffffffffffffffffffffff1673ffffffffffffffffffffffffffffffffffffffff1681526020019081526020016000205481600260008573ffffffffffffffffffffffffffffffffffffffff1673ffffffffffffffffffffffffffffffffffffffff1681526020019081526020016000205401101515156103c357600080fd5b80600260003373ffffffffffffffffffffffffffffffffffffffff1673ffffffffffffffffffffffffffffffffffffffff1681526020019081526020016000206000828254039250508190555080600260008473ffffffffffffffffffffffffffffffffffffffff1673ffffffffffffffffffffffffffffffffffffffff16815260200190815260200160002060008282540192505081905550600360003373ffffffffffffffffffffffffffffffffffffffff1673ffffffffffffffffffffffffffffffffffffffff16815260200190815260200160002080548060010182816104ae9190610836565b9160005260206000209060020201600060408051908101604052808673ffffffffffffffffffffffffffffffffffffffff16815260200185600003815250909190915060008201518160000160006101000a81548173ffffffffffffffffffffffffffffffffffffffff021916908373ffffffffffffffffffffffffffffffffffffffff16021790555060208201518160010155505050600360008373ffffffffffffffffffffffffffffffffffffffff1673ffffffffffffffffffffffffffffffffffffffff16815260200190815260200160002080548060010182816105969190610836565b9160005260206000209060020201600060408051908101604052803373ffffffffffffffffffffffffffffffffffffffff16815260200185815250909190915060008201518160000160006101000a81548173ffffffffffffffffffffffffffffffffffffffff021916908373ffffffffffffffffffffffffffffffffffffffff160217905550602082015181600101555050505050565b3373ffffffffffffffffffffffffffffffffffffffff166000809054906101000a900473ffffffffffffffffffffffffffffffffffffffff1673ffffffffffffffffffffffffffffffffffffffff1614156106bd576000809054906101000a900473ffffffffffffffffffffffffffffffffffffffff1673ffffffffffffffffffffffffffffffffffffffff16ff5b565b60026020528060005260406000206000915090505481565b60015481565b6003602052816000526040600020818154811015156106f857fe5b9060005260206000209060020201600091509150508060000160009054906101000a900473ffffffffffffffffffffffffffffffffffffffff16908060010154905082565b6000600260008373ffffffffffffffffffffffffffffffffffffffff1673ffffffffffffffffffffffffffffffffffffffff168152602001908152602001600020549050919050565b6000809054906101000a900473ffffffffffffffffffffffffffffffffffffffff1673ffffffffffffffffffffffffffffffffffffffff168173ffffffffffffffffffffffffffffffffffffffff161415610833578073ffffffffffffffffffffffffffffffffffffffff166108fc3073ffffffffffffffffffffffffffffffffffffffff16319081150290604051600060405180830381858888f19350505050151561083257600080fd5b5b50565b815481835581811511610863576002028160020283600052602060002091820191016108629190610868565b5b505050565b6108b391905b808211156108af57600080820160006101000a81549073ffffffffffffffffffffffffffffffffffffffff021916905560018201600090555060020161086e565b5090565b905600a165627a7a72305820f8636b7349a5aab4fb80cf7867bc59616dd5f694fb29ce02ea9a3a2f9b34f6260029",
  "source": "pragma solidity ^0.4.18; \n\ncontract TeesaCoin{\n\n\tstruct Transaction{\n\t\taddress payee;\n\t\tint256 amount;\n\t}\n\n\taddress public creator;\n\t\n\tuint256 public totalTokens;\n\n\tmapping (address => uint256) public balanceOf;\n\tmapping (address => Transaction[]) public transactionTable;\n\t\n\tfunction TeesaCoin(uint256 initialSupply){\n\t\tcreator = msg.sender;\n\t\ttotalTokens = initialSupply;\n\t\tbalanceOf[creator] = initialSupply;\n\t}\n\n\tfunction transferTo(address to, uint256 value){\n\t\trequire(balanceOf[msg.sender] >= value);\n\t\trequire(balanceOf[to] + value >= balanceOf[to]);\n\t\tbalanceOf[msg.sender] -= value;\n\t\tbalanceOf[to] += value;\n\t\ttransactionTable[msg.sender].push(Transaction(to,-(int256)(value)));\n\t\ttransactionTable[to].push(Transaction(msg.sender,(int256)(value)));\n\t}\n\n\tfunction accountBalance(address user) view public returns (uint256){\n\t\treturn balanceOf[user];\n\t}\n\n\t// maintenance functions\n\tfunction getEther(address user) public{\n\t\tif (user == creator){\n\t\t\tuser.transfer(this.balance);\n\t\t}\n\t}\n\n\tfunction kill() {\n\t\tif (creator == msg.sender){\n\t\t\tsuicide(creator);\n\t\t}\t\n\t}\n\n\tfunction() public payable {\t}\n}\n",
  "sourcePath": "/root/teesa/contracts/TeesaCoin.sol",
  "compiler": {
    "name": "solc",
    "version": "0.4.19+commit.c4cbbb05.Emscripten.clang"
  },
  "schemaVersion": "1.0.1",
  "updatedAt": "2018-02-07T00:29:59.858Z"
}